{
  "contractName": "TickTok",
  "abi": [
    {
      "inputs": [
        {
          "name": "_e",
          "type": "string"
        },
        {
          "name": "_o",
          "type": "string"
        }
      ],
      "payable": false,
      "stateMutability": "nonpayable",
      "type": "constructor"
    },
    {
      "constant": false,
      "inputs": [
        {
          "name": "class",
          "type": "uint256"
        },
        {
          "name": "_classStr",
          "type": "string"
        }
      ],
      "name": "setClassStr",
      "outputs": [],
      "payable": false,
      "stateMutability": "nonpayable",
      "type": "function"
    },
    {
      "constant": true,
      "inputs": [
        {
          "name": "class",
          "type": "uint256"
        }
      ],
      "name": "getClassStr",
      "outputs": [
        {
          "name": "",
          "type": "string"
        }
      ],
      "payable": false,
      "stateMutability": "view",
      "type": "function"
    },
    {
      "constant": false,
      "inputs": [
        {
          "name": "class",
          "type": "uint256"
        },
        {
          "name": "nCap",
          "type": "uint256"
        }
      ],
      "name": "updateCap",
      "outputs": [],
      "payable": false,
      "stateMutability": "nonpayable",
      "type": "function"
    },
    {
      "constant": false,
      "inputs": [
        {
          "name": "target",
          "type": "address"
        },
        {
          "name": "str",
          "type": "string"
        },
        {
          "name": "class",
          "type": "uint256"
        },
        {
          "name": "amount",
          "type": "uint256"
        }
      ],
      "name": "sellToken",
      "outputs": [],
      "payable": false,
      "stateMutability": "nonpayable",
      "type": "function"
    },
    {
      "constant": false,
      "inputs": [
        {
          "name": "from",
          "type": "address"
        },
        {
          "name": "n_fStr",
          "type": "string"
        },
        {
          "name": "to",
          "type": "address"
        },
        {
          "name": "n_tStr",
          "type": "string"
        }
      ],
      "name": "transferToken",
      "outputs": [],
      "payable": false,
      "stateMutability": "nonpayable",
      "type": "function"
    },
    {
      "constant": true,
      "inputs": [
        {
          "name": "target",
          "type": "address"
        }
      ],
      "name": "getToken",
      "outputs": [
        {
          "name": "",
          "type": "string"
        }
      ],
      "payable": false,
      "stateMutability": "view",
      "type": "function"
    },
    {
      "constant": true,
      "inputs": [],
      "name": "getEventTitle",
      "outputs": [
        {
          "name": "",
          "type": "string"
        }
      ],
      "payable": false,
      "stateMutability": "view",
      "type": "function"
    },
    {
      "constant": true,
      "inputs": [],
      "name": "getOrganizer",
      "outputs": [
        {
          "name": "",
          "type": "string"
        }
      ],
      "payable": false,
      "stateMutability": "view",
      "type": "function"
    },
    {
      "constant": true,
      "inputs": [],
      "name": "getTimestamp",
      "outputs": [
        {
          "name": "",
          "type": "string"
        }
      ],
      "payable": false,
      "stateMutability": "view",
      "type": "function"
    }
  ],
  "bytecode": "0x608060405234801561001057600080fd5b50604051610e57380380610e578339810180604052810190808051820192919060200180518201929190505050816000800190805190602001906100559291906100b8565b50806000600101908051906020019061006f9291906100b8565b5033600360006101000a81548173ffffffffffffffffffffffffffffffffffffffff021916908373ffffffffffffffffffffffffffffffffffffffff160217905550505061015d565b828054600181600116156101000203166002900490600052602060002090601f016020900481019282601f106100f957805160ff1916838001178555610127565b82800160010185558215610127579182015b8281111561012657825182559160200191906001019061010b565b5b5090506101349190610138565b5090565b61015a91905b8082111561015657600081600090555060010161013e565b5090565b90565b610ceb8061016c6000396000f300608060405260043610610099576000357c0100000000000000000000000000000000000000000000000000000000900463ffffffff1680630e28cad81461009e57806314201d6d14610144578063188ec356146101b75780631b573d561461024757806325c834b1146102d75780633e859fcb146103c6578063501e74e6146103fd578063597704381461049a578063c2def3b914610556575b600080fd5b3480156100aa57600080fd5b506100c9600480360381019080803590602001909291905050506105e6565b6040518080602001828103825283818151815260200191508051906020019080838360005b838110156101095780820151818401526020810190506100ee565b50505050905090810190601f1680156101365780820380516001836020036101000a031916815260200191505b509250505060405180910390f35b34801561015057600080fd5b506101b560048036038101908080359060200190929190803590602001908201803590602001908080601f016020809104026020016040519081016040528093929190818152602001838380828437820191505050505050919291929050505061069b565b005b3480156101c357600080fd5b506101cc6106c7565b6040518080602001828103825283818151815260200191508051906020019080838360005b8381101561020c5780820151818401526020810190506101f1565b50505050905090810190601f1680156102395780820380516001836020036101000a031916815260200191505b509250505060405180910390f35b34801561025357600080fd5b5061025c61076c565b6040518080602001828103825283818151815260200191508051906020019080838360005b8381101561029c578082015181840152602081019050610281565b50505050905090810190601f1680156102c95780820380516001836020036101000a031916815260200191505b509250505060405180910390f35b3480156102e357600080fd5b506103c4600480360381019080803573ffffffffffffffffffffffffffffffffffffffff169060200190929190803590602001908201803590602001908080601f0160208091040260200160405190810160405280939291908181526020018383808284378201915050505050509192919290803573ffffffffffffffffffffffffffffffffffffffff169060200190929190803590602001908201803590602001908080601f0160208091040260200160405190810160405280939291908181526020018383808284378201915050505050509192919290505050610810565b005b3480156103d257600080fd5b506103fb6004803603810190808035906020019092919080359060200190929190505050610917565b005b34801561040957600080fd5b50610498600480360381019080803573ffffffffffffffffffffffffffffffffffffffff169060200190929190803590602001908201803590602001908080601f0160208091040260200160405190810160405280939291908181526020018383808284378201915050505050509192919290803590602001909291908035906020019092919050505061098c565b005b3480156104a657600080fd5b506104db600480360381019080803573ffffffffffffffffffffffffffffffffffffffff169060200190929190505050610a94565b6040518080602001828103825283818151815260200191508051906020019080838360005b8381101561051b578082015181840152602081019050610500565b50505050905090810190601f1680156105485780820380516001836020036101000a031916815260200191505b509250505060405180910390f35b34801561056257600080fd5b5061056b610b75565b6040518080602001828103825283818151815260200191508051906020019080838360005b838110156105ab578082015181840152602081019050610590565b50505050905090810190601f1680156105d85780820380516001836020036101000a031916815260200191505b509250505060405180910390f35b6060600660008381526020019081526020016000208054600181600116156101000203166002900480601f01602080910402602001604051908101604052809291908181526020018280546001816001161561010002031660029004801561068f5780601f106106645761010080835404028352916020019161068f565b820191906000526020600020905b81548152906001019060200180831161067257829003601f168201915b50505050509050919050565b806006600084815260200190815260200160002090805190602001906106c2929190610c1a565b505050565b606060006002018054600181600116156101000203166002900480601f0160208091040260200160405190810160405280929190818152602001828054600181600116156101000203166002900480156107625780601f1061073757610100808354040283529160200191610762565b820191906000526020600020905b81548152906001019060200180831161074557829003601f168201915b5050505050905090565b6060600080018054600181600116156101000203166002900480601f0160208091040260200160405190810160405280929190818152602001828054600181600116156101000203166002900480156108065780601f106107db57610100808354040283529160200191610806565b820191906000526020600020905b8154815290600101906020018083116107e957829003601f168201915b5050505050905090565b600360009054906101000a900473ffffffffffffffffffffffffffffffffffffffff1673ffffffffffffffffffffffffffffffffffffffff163373ffffffffffffffffffffffffffffffffffffffff1614151561086957fe5b82600460008673ffffffffffffffffffffffffffffffffffffffff1673ffffffffffffffffffffffffffffffffffffffff16815260200190815260200160002090805190602001906108bc929190610c1a565b5080600460008473ffffffffffffffffffffffffffffffffffffffff1673ffffffffffffffffffffffffffffffffffffffff1681526020019081526020016000209080519060200190610910929190610c1a565b5050505050565b600360009054906101000a900473ffffffffffffffffffffffffffffffffffffffff1673ffffffffffffffffffffffffffffffffffffffff163373ffffffffffffffffffffffffffffffffffffffff1614151561097057fe5b8060056000848152602001908152602001600020819055505050565b600360009054906101000a900473ffffffffffffffffffffffffffffffffffffffff1673ffffffffffffffffffffffffffffffffffffffff163373ffffffffffffffffffffffffffffffffffffffff161415156109e557fe5b60056000838152602001908152602001600020548160076000858152602001908152602001600020540111151515610a1957fe5b82600460008673ffffffffffffffffffffffffffffffffffffffff1673ffffffffffffffffffffffffffffffffffffffff1681526020019081526020016000209080519060200190610a6c929190610c1a565b5080600760008481526020019081526020016000206000828254019250508190555050505050565b6060600460008373ffffffffffffffffffffffffffffffffffffffff1673ffffffffffffffffffffffffffffffffffffffff1681526020019081526020016000208054600181600116156101000203166002900480601f016020809104026020016040519081016040528092919081815260200182805460018160011615610100020316600290048015610b695780601f10610b3e57610100808354040283529160200191610b69565b820191906000526020600020905b815481529060010190602001808311610b4c57829003601f168201915b50505050509050919050565b606060006001018054600181600116156101000203166002900480601f016020809104026020016040519081016040528092919081815260200182805460018160011615610100020316600290048015610c105780601f10610be557610100808354040283529160200191610c10565b820191906000526020600020905b815481529060010190602001808311610bf357829003601f168201915b5050505050905090565b828054600181600116156101000203166002900490600052602060002090601f016020900481019282601f10610c5b57805160ff1916838001178555610c89565b82800160010185558215610c89579182015b82811115610c88578251825591602001919060010190610c6d565b5b509050610c969190610c9a565b5090565b610cbc91905b80821115610cb8576000816000905550600101610ca0565b5090565b905600a165627a7a723058205fcdf04919d118eb79121fe6f4f0433404c0f8e5624ee656cb11b80056cadb4f0029",
  "source": "pragma solidity ^0.4.24;\n\ncontract TickTok {\n  TokeVent private eDtail_;\n  address private owner_;\n\n  constructor(string _e, string _o) public  {\n    eDtail_.EventTitle = _e;\n    eDtail_.Organizer = _o;\n//    eDtail_.Timestamp = _t;\n    owner_ = msg.sender;\n  }\n\n  struct TokeVent {\n      string EventTitle;\n      string Organizer;\n      string Timestamp;\n  }\n\n  mapping (address => string) private token;\n  mapping (uint256 => uint256) private cap;\n  mapping (uint256 => string) private classStr;\n  mapping (uint256 => uint256) private sold;\n\n  function setClassStr(uint256 class, string _classStr) public {\n      classStr[class] = _classStr;\n  }\n\n  function getClassStr(uint256 class) public view returns (string) {\n    return classStr[class];\n  }\n\n  function updateCap(uint256 class, uint256 nCap) public {\n    assert(msg.sender == owner_);\n    cap[class] = nCap;\n  }\n\n  function sellToken(address target, string str, uint256 class, uint256 amount) public {\n      assert(msg.sender == owner_);\n      assert(sold[class] + amount <= cap[class]);\n      token[target] = str;\n      sold[class] += amount;\n  }\n\n  function transferToken(address from, string n_fStr, address to, string n_tStr) public {\n      assert(msg.sender == owner_);\n      token[from] = n_fStr;\n      token[to] = n_tStr;\n  }\n\n  function getToken(address target) public view returns (string) {\n      return token[target];\n  }\n\n  function getEventTitle()  public view returns (string) {\n      return eDtail_.EventTitle;\n  }\n\n  function getOrganizer()  public view returns (string) {\n      return eDtail_.Organizer;\n  }\n\n  function getTimestamp()  public view returns (string) {\n      return eDtail_.Timestamp;\n  }\n}\n",
  "sourcePath": "D:\\Dev\\dappp\\ticktok\\contracts\\TickToken.sol",
  "compiler": {
    "name": "solc",
    "version": "0.4.24+commit.e67f0147.Emscripten.clang"
  },
  "schemaVersion": "2.0.1",
  "updatedAt": "2018-08-18T14:53:26.322Z"
}