{
  "contractName": "edb",
  "abi": [
    {
      "constant": false,
      "inputs": [
        {
          "name": "adr",
          "type": "address"
        },
        {
          "name": "str",
          "type": "string"
        },
        {
          "name": "num",
          "type": "uint256"
        }
      ],
      "name": "store",
      "outputs": [],
      "payable": false,
      "stateMutability": "nonpayable",
      "type": "function"
    },
    {
      "constant": true,
      "inputs": [
        {
          "name": "adr",
          "type": "address"
        }
      ],
      "name": "getsmth",
      "outputs": [
        {
          "name": "mth",
          "type": "string"
        }
      ],
      "payable": false,
      "stateMutability": "view",
      "type": "function"
    },
    {
      "constant": true,
      "inputs": [
        {
          "name": "adr",
          "type": "address"
        }
      ],
      "name": "getnum",
      "outputs": [
        {
          "name": "num",
          "type": "uint256"
        }
      ],
      "payable": false,
      "stateMutability": "view",
      "type": "function"
    }
  ],
  "bytecode": "0x608060405234801561001057600080fd5b506104a2806100206000396000f300608060405260043610610057576000357c0100000000000000000000000000000000000000000000000000000000900463ffffffff1680630ca1988b1461005c57806364734e82146100b357806394db576d1461016f575b600080fd5b34801561006857600080fd5b5061009d600480360381019080803573ffffffffffffffffffffffffffffffffffffffff169060200190929190505050610202565b6040518082815260200191505060405180910390f35b3480156100bf57600080fd5b506100f4600480360381019080803573ffffffffffffffffffffffffffffffffffffffff16906020019092919050505061024d565b6040518080602001828103825283818151815260200191508051906020019080838360005b83811015610134578082015181840152602081019050610119565b50505050905090810190601f1680156101615780820380516001836020036101000a031916815260200191505b509250505060405180910390f35b34801561017b57600080fd5b50610200600480360381019080803573ffffffffffffffffffffffffffffffffffffffff169060200190929190803590602001908201803590602001908080601f016020809104026020016040519081016040528093929190818152602001838380828437820191505050505050919291929080359060200190929190505050610330565b005b60008060008373ffffffffffffffffffffffffffffffffffffffff1673ffffffffffffffffffffffffffffffffffffffff168152602001908152602001600020600101549050919050565b60606000808373ffffffffffffffffffffffffffffffffffffffff1673ffffffffffffffffffffffffffffffffffffffff1681526020019081526020016000206000018054600181600116156101000203166002900480601f0160208091040260200160405190810160405280929190818152602001828054600181600116156101000203166002900480156103245780601f106102f957610100808354040283529160200191610324565b820191906000526020600020905b81548152906001019060200180831161030757829003601f168201915b50505050509050919050565b816000808573ffffffffffffffffffffffffffffffffffffffff1673ffffffffffffffffffffffffffffffffffffffff16815260200190815260200160002060000190805190602001906103859291906103d1565b50806000808573ffffffffffffffffffffffffffffffffffffffff1673ffffffffffffffffffffffffffffffffffffffff16815260200190815260200160002060010181905550505050565b828054600181600116156101000203166002900490600052602060002090601f016020900481019282601f1061041257805160ff1916838001178555610440565b82800160010185558215610440579182015b8281111561043f578251825591602001919060010190610424565b5b50905061044d9190610451565b5090565b61047391905b8082111561046f576000816000905550600101610457565b5090565b905600a165627a7a72305820e3d561db13b82dcab96b9bb1c301877902c7a21d4b7452e86e0514e63399f4c80029",
  "source": "pragma solidity ^0.4.24;\r\n\r\ncontract edb {\r\n\r\n    struct edata {\r\n        string smth;\r\n        uint snumber;\r\n    }\r\n\r\n    mapping (address => edata) private sdata;\r\n\r\n    function store(address adr , string str, uint num) public {\r\n        sdata[adr].smth = str;\r\n        sdata[adr].snumber = num;\r\n    }\r\n\r\n    function getsmth(address adr) public view returns(string mth) {\r\n        mth = sdata[adr].smth;\r\n    }\r\n\r\n    function getnum(address adr) public view returns(uint num) {\r\n      num = sdata[adr].snumber;\r\n    }\r\n\r\n}\r\n",
  "sourcePath": "D:\\Dev\\web3-pg\\test0\\edb\\contracts\\Edb.sol",
  "compiler": {
    "name": "solc",
    "version": "0.4.24+commit.e67f0147.Emscripten.clang"
  },
  "schemaVersion": "2.0.1",
  "updatedAt": "2018-08-17T12:34:16.274Z"
}